{
  "contractName": "CM",
  "abi": [
    {
      "inputs": [],
      "payable": true,
      "stateMutability": "payable",
      "type": "constructor"
    },
    {
      "constant": true,
      "inputs": [],
      "name": "Medicinal_counter",
      "outputs": [
        {
          "internalType": "uint256",
          "name": "",
          "type": "uint256"
        }
      ],
      "payable": false,
      "stateMutability": "view",
      "type": "function"
    },
    {
      "constant": true,
      "inputs": [],
      "name": "Pres_counter",
      "outputs": [
        {
          "internalType": "uint256",
          "name": "",
          "type": "uint256"
        }
      ],
      "payable": false,
      "stateMutability": "view",
      "type": "function"
    },
    {
      "constant": true,
      "inputs": [
        {
          "internalType": "uint256",
          "name": "",
          "type": "uint256"
        }
      ],
      "name": "prescription_book",
      "outputs": [
        {
          "internalType": "string",
          "name": "medicinal_materials",
          "type": "string"
        },
        {
          "internalType": "uint256",
          "name": "ID",
          "type": "uint256"
        },
        {
          "internalType": "string",
          "name": "Effect",
          "type": "string"
        },
        {
          "internalType": "string",
          "name": "prescription_type",
          "type": "string"
        }
      ],
      "payable": false,
      "stateMutability": "view",
      "type": "function"
    },
    {
      "constant": false,
      "inputs": [
        {
          "internalType": "uint256",
          "name": "num",
          "type": "uint256"
        }
      ],
      "name": "reduceOwnership",
      "outputs": [
        {
          "internalType": "bool",
          "name": "",
          "type": "bool"
        }
      ],
      "payable": false,
      "stateMutability": "nonpayable",
      "type": "function"
    },
    {
      "constant": false,
      "inputs": [
        {
          "internalType": "address",
          "name": "newcontroller",
          "type": "address"
        }
      ],
      "name": "increaseOwnership",
      "outputs": [
        {
          "internalType": "uint256",
          "name": "",
          "type": "uint256"
        }
      ],
      "payable": false,
      "stateMutability": "nonpayable",
      "type": "function"
    },
    {
      "constant": true,
      "inputs": [
        {
          "internalType": "address",
          "name": "newcontroller",
          "type": "address"
        }
      ],
      "name": "checkID",
      "outputs": [
        {
          "internalType": "uint256",
          "name": "",
          "type": "uint256"
        }
      ],
      "payable": false,
      "stateMutability": "view",
      "type": "function"
    },
    {
      "constant": false,
      "inputs": [
        {
          "internalType": "string",
          "name": "User_ID",
          "type": "string"
        },
        {
          "internalType": "string",
          "name": "User_name",
          "type": "string"
        },
        {
          "internalType": "string",
          "name": "phonenumber",
          "type": "string"
        },
        {
          "internalType": "string",
          "name": "_email",
          "type": "string"
        },
        {
          "internalType": "string",
          "name": "_gender",
          "type": "string"
        },
        {
          "internalType": "string",
          "name": "_time",
          "type": "string"
        },
        {
          "internalType": "string",
          "name": "_occupation",
          "type": "string"
        },
        {
          "internalType": "bool",
          "name": "_Isdoctor",
          "type": "bool"
        }
      ],
      "name": "Registration",
      "outputs": [],
      "payable": false,
      "stateMutability": "nonpayable",
      "type": "function"
    },
    {
      "constant": false,
      "inputs": [
        {
          "internalType": "string",
          "name": "doctorName",
          "type": "string"
        },
        {
          "internalType": "string",
          "name": "patientName",
          "type": "string"
        },
        {
          "internalType": "string",
          "name": "_Symptom",
          "type": "string"
        },
        {
          "internalType": "string",
          "name": "_Date_of_consultation",
          "type": "string"
        },
        {
          "internalType": "string",
          "name": "_Describe",
          "type": "string"
        },
        {
          "internalType": "string",
          "name": "_Prescription",
          "type": "string"
        },
        {
          "internalType": "uint256",
          "name": "_Total_sum",
          "type": "uint256"
        }
      ],
      "name": "Record_medical_records",
      "outputs": [
        {
          "internalType": "uint256",
          "name": "",
          "type": "uint256"
        }
      ],
      "payable": false,
      "stateMutability": "nonpayable",
      "type": "function"
    },
    {
      "constant": false,
      "inputs": [
        {
          "internalType": "string",
          "name": "identifier",
          "type": "string"
        },
        {
          "internalType": "string",
          "name": "_name",
          "type": "string"
        },
        {
          "internalType": "uint256",
          "name": "_num",
          "type": "uint256"
        },
        {
          "internalType": "string",
          "name": "place",
          "type": "string"
        },
        {
          "internalType": "string",
          "name": "date",
          "type": "string"
        }
      ],
      "name": "Purchase",
      "outputs": [
        {
          "internalType": "bool",
          "name": "",
          "type": "bool"
        }
      ],
      "payable": false,
      "stateMutability": "nonpayable",
      "type": "function"
    },
    {
      "constant": false,
      "inputs": [
        {
          "internalType": "string",
          "name": "identifier",
          "type": "string"
        },
        {
          "internalType": "bool",
          "name": "_inspect",
          "type": "bool"
        },
        {
          "internalType": "string",
          "name": "_quality",
          "type": "string"
        },
        {
          "internalType": "string",
          "name": "_ProcessingDate",
          "type": "string"
        },
        {
          "internalType": "string",
          "name": "_EffectDate",
          "type": "string"
        }
      ],
      "name": "Produce",
      "outputs": [
        {
          "internalType": "bool",
          "name": "",
          "type": "bool"
        }
      ],
      "payable": false,
      "stateMutability": "nonpayable",
      "type": "function"
    },
    {
      "constant": true,
      "inputs": [
        {
          "internalType": "string",
          "name": "identifier",
          "type": "string"
        }
      ],
      "name": "checkMedicine",
      "outputs": [
        {
          "internalType": "string",
          "name": "",
          "type": "string"
        },
        {
          "internalType": "uint256",
          "name": "",
          "type": "uint256"
        },
        {
          "internalType": "string",
          "name": "",
          "type": "string"
        },
        {
          "internalType": "string",
          "name": "",
          "type": "string"
        },
        {
          "internalType": "string",
          "name": "",
          "type": "string"
        },
        {
          "internalType": "string",
          "name": "",
          "type": "string"
        },
        {
          "internalType": "string",
          "name": "",
          "type": "string"
        },
        {
          "internalType": "bool",
          "name": "",
          "type": "bool"
        }
      ],
      "payable": false,
      "stateMutability": "view",
      "type": "function"
    },
    {
      "constant": true,
      "inputs": [
        {
          "internalType": "uint256",
          "name": "page",
          "type": "uint256"
        }
      ],
      "name": "checkMedicalOrder",
      "outputs": [
        {
          "internalType": "string",
          "name": "",
          "type": "string"
        },
        {
          "internalType": "string",
          "name": "",
          "type": "string"
        },
        {
          "internalType": "string",
          "name": "",
          "type": "string"
        },
        {
          "internalType": "string",
          "name": "",
          "type": "string"
        },
        {
          "internalType": "string",
          "name": "",
          "type": "string"
        },
        {
          "internalType": "string",
          "name": "",
          "type": "string"
        },
        {
          "internalType": "uint256",
          "name": "",
          "type": "uint256"
        }
      ],
      "payable": false,
      "stateMutability": "view",
      "type": "function"
    },
    {
      "constant": false,
      "inputs": [
        {
          "internalType": "string",
          "name": "_medicinal_materials",
          "type": "string"
        },
        {
          "internalType": "string",
          "name": "_Effect",
          "type": "string"
        },
        {
          "internalType": "string",
          "name": "_prescription_type",
          "type": "string"
        }
      ],
      "name": "Submit_prescription",
      "outputs": [
        {
          "internalType": "bool",
          "name": "",
          "type": "bool"
        }
      ],
      "payable": true,
      "stateMutability": "payable",
      "type": "function"
    },
    {
      "constant": true,
      "inputs": [],
      "name": "checkpage",
      "outputs": [
        {
          "internalType": "uint256",
          "name": "",
          "type": "uint256"
        }
      ],
      "payable": false,
      "stateMutability": "view",
      "type": "function"
    },
    {
      "constant": false,
      "inputs": [],
      "name": "Deposit",
      "outputs": [
        {
          "internalType": "uint256",
          "name": "",
          "type": "uint256"
        }
      ],
      "payable": true,
      "stateMutability": "payable",
      "type": "function"
    },
    {
      "constant": true,
      "inputs": [
        {
          "internalType": "uint256",
          "name": "_ID",
          "type": "uint256"
        }
      ],
      "name": "checkPrescription",
      "outputs": [
        {
          "internalType": "string",
          "name": "",
          "type": "string"
        },
        {
          "internalType": "string",
          "name": "",
          "type": "string"
        },
        {
          "internalType": "string",
          "name": "",
          "type": "string"
        }
      ],
      "payable": false,
      "stateMutability": "view",
      "type": "function"
    },
    {
      "constant": true,
      "inputs": [],
      "name": "checkUserdate",
      "outputs": [
        {
          "internalType": "string",
          "name": "",
          "type": "string"
        },
        {
          "internalType": "string",
          "name": "",
          "type": "string"
        },
        {
          "internalType": "string",
          "name": "",
          "type": "string"
        },
        {
          "internalType": "string",
          "name": "",
          "type": "string"
        },
        {
          "internalType": "string",
          "name": "",
          "type": "string"
        },
        {
          "internalType": "string",
          "name": "",
          "type": "string"
        },
        {
          "internalType": "string",
          "name": "",
          "type": "string"
        }
      ],
      "payable": false,
      "stateMutability": "view",
      "type": "function"
    }
  ],
  "bytecode": "0x6080604052600047101561001257600080fd5b6001600080018190555033600060010160008060000154815260200190815260200160002060006101000a81548173ffffffffffffffffffffffffffffffffffffffff021916908373ffffffffffffffffffffffffffffffffffffffff160217905550613ed6806100846000396000f3fe6080604052600436106100fe5760003560e01c80637c82a4d611610095578063cdaebfe911610064578063cdaebfe91461172b578063d8323f9c146119dc578063ed21248c14611c8b578063f2e91c4a14611ca9578063fdd8507514611cd4576100fe565b80637c82a4d614610a90578063878d29c214610d67578063a4f96bb014611140578063c1b922701461159f576100fe565b806356357c20116100d157806356357c20146104d657806357fd2eb414610669578063777dde25146106ce5780637a0f7a8d14610a3d576100fe565b806308497a5d146101035780630c1783b11461012e578063290cf1881461044657806348fb9060146104ab575b600080fd5b34801561010f57600080fd5b50610118611ed5565b6040518082815260200191505060405180910390f35b34801561013a57600080fd5b50610143611edc565b604051808060200180602001806020018060200180602001806020018060200188810388528f818151815260200191508051906020019080838360005b8381101561019b578082015181840152602081019050610180565b50505050905090810190601f1680156101c85780820380516001836020036101000a031916815260200191505b5088810387528e818151815260200191508051906020019080838360005b838110156102015780820151818401526020810190506101e6565b50505050905090810190601f16801561022e5780820380516001836020036101000a031916815260200191505b5088810386528d818151815260200191508051906020019080838360005b8381101561026757808201518184015260208101905061024c565b50505050905090810190601f1680156102945780820380516001836020036101000a031916815260200191505b5088810385528c818151815260200191508051906020019080838360005b838110156102cd5780820151818401526020810190506102b2565b50505050905090810190601f1680156102fa5780820380516001836020036101000a031916815260200191505b5088810384528b818151815260200191508051906020019080838360005b83811015610333578082015181840152602081019050610318565b50505050905090810190601f1680156103605780820380516001836020036101000a031916815260200191505b5088810383528a818151815260200191508051906020019080838360005b8381101561039957808201518184015260208101905061037e565b50505050905090810190601f1680156103c65780820380516001836020036101000a031916815260200191505b50888103825289818151815260200191508051906020019080838360005b838110156103ff5780820151818401526020810190506103e4565b50505050905090810190601f16801561042c5780820380516001836020036101000a031916815260200191505b509e50505050505050505050505050505060405180910390f35b34801561045257600080fd5b506104956004803603602081101561046957600080fd5b81019080803573ffffffffffffffffffffffffffffffffffffffff1690602001909291905050506123a3565b6040518082815260200191505060405180910390f35b3480156104b757600080fd5b506104c06124e6565b6040518082815260200191505060405180910390f35b3480156104e257600080fd5b5061050f600480360360208110156104f957600080fd5b8101908080359060200190929190505050612531565b60405180806020018581526020018060200180602001848103845288818151815260200191508051906020019080838360005b8381101561055d578082015181840152602081019050610542565b50505050905090810190601f16801561058a5780820380516001836020036101000a031916815260200191505b50848103835286818151815260200191508051906020019080838360005b838110156105c35780820151818401526020810190506105a8565b50505050905090810190601f1680156105f05780820380516001836020036101000a031916815260200191505b50848103825285818151815260200191508051906020019080838360005b8381101561062957808201518184015260208101905061060e565b50505050905090810190601f1680156106565780820380516001836020036101000a031916815260200191505b5097505050505050505060405180910390f35b34801561067557600080fd5b506106b86004803603602081101561068c57600080fd5b81019080803573ffffffffffffffffffffffffffffffffffffffff16906020019092919050505061272c565b6040518082815260200191505060405180910390f35b3480156106da57600080fd5b50610794600480360360208110156106f157600080fd5b810190808035906020019064010000000081111561070e57600080fd5b82018360208201111561072057600080fd5b8035906020019184600183028401116401000000008311171561074257600080fd5b91908080601f016020809104026020016040519081016040528093929190818152602001838380828437600081840152601f19601f820116905080830192505050505050509192919290505050612846565b604051808060200189815260200180602001806020018060200180602001806020018815151515815260200187810387528f818151815260200191508051906020019080838360005b838110156107f85780820151818401526020810190506107dd565b50505050905090810190601f1680156108255780820380516001836020036101000a031916815260200191505b5087810386528d818151815260200191508051906020019080838360005b8381101561085e578082015181840152602081019050610843565b50505050905090810190601f16801561088b5780820380516001836020036101000a031916815260200191505b5087810385528c818151815260200191508051906020019080838360005b838110156108c45780820151818401526020810190506108a9565b50505050905090810190601f1680156108f15780820380516001836020036101000a031916815260200191505b5087810384528b818151815260200191508051906020019080838360005b8381101561092a57808201518184015260208101905061090f565b50505050905090810190601f1680156109575780820380516001836020036101000a031916815260200191505b5087810383528a818151815260200191508051906020019080838360005b83811015610990578082015181840152602081019050610975565b50505050905090810190601f1680156109bd5780820380516001836020036101000a031916815260200191505b50878103825289818151815260200191508051906020019080838360005b838110156109f65780820151818401526020810190506109db565b50505050905090810190601f168015610a235780820380516001836020036101000a031916815260200191505b509e50505050505050505050505050505060405180910390f35b348015610a4957600080fd5b50610a7660048036036020811015610a6057600080fd5b8101908080359060200190929190505050612cb4565b604051808215151515815260200191505060405180910390f35b348015610a9c57600080fd5b50610ac960048036036020811015610ab357600080fd5b8101908080359060200190929190505050612e2b565b6040518080602001806020018060200180602001806020018060200188815260200187810387528e818151815260200191508051906020019080838360005b83811015610b23578082015181840152602081019050610b08565b50505050905090810190601f168015610b505780820380516001836020036101000a031916815260200191505b5087810386528d818151815260200191508051906020019080838360005b83811015610b89578082015181840152602081019050610b6e565b50505050905090810190601f168015610bb65780820380516001836020036101000a031916815260200191505b5087810385528c818151815260200191508051906020019080838360005b83811015610bef578082015181840152602081019050610bd4565b50505050905090810190601f168015610c1c5780820380516001836020036101000a031916815260200191505b5087810384528b818151815260200191508051906020019080838360005b83811015610c55578082015181840152602081019050610c3a565b50505050905090810190601f168015610c825780820380516001836020036101000a031916815260200191505b5087810383528a818151815260200191508051906020019080838360005b83811015610cbb578082015181840152602081019050610ca0565b50505050905090810190601f168015610ce85780820380516001836020036101000a031916815260200191505b50878103825289818151815260200191508051906020019080838360005b83811015610d21578082015181840152602081019050610d06565b50505050905090810190601f168015610d4e5780820380516001836020036101000a031916815260200191505b509d505050505050505050505050505060405180910390f35b348015610d7357600080fd5b5061112a600480360360e0811015610d8a57600080fd5b8101908080359060200190640100000000811115610da757600080fd5b820183602082011115610db957600080fd5b80359060200191846001830284011164010000000083111715610ddb57600080fd5b91908080601f016020809104026020016040519081016040528093929190818152602001838380828437600081840152601f19601f82011690508083019250505050505050919291929080359060200190640100000000811115610e3e57600080fd5b820183602082011115610e5057600080fd5b80359060200191846001830284011164010000000083111715610e7257600080fd5b91908080601f016020809104026020016040519081016040528093929190818152602001838380828437600081840152601f19601f82011690508083019250505050505050919291929080359060200190640100000000811115610ed557600080fd5b820183602082011115610ee757600080fd5b80359060200191846001830284011164010000000083111715610f0957600080fd5b91908080601f016020809104026020016040519081016040528093929190818152602001838380828437600081840152601f19601f82011690508083019250505050505050919291929080359060200190640100000000811115610f6c57600080fd5b820183602082011115610f7e57600080fd5b80359060200191846001830284011164010000000083111715610fa057600080fd5b91908080601f016020809104026020016040519081016040528093929190818152602001838380828437600081840152601f19601f8201169050808301925050505050505091929192908035906020019064010000000081111561100357600080fd5b82018360208201111561101557600080fd5b8035906020019184600183028401116401000000008311171561103757600080fd5b91908080601f016020809104026020016040519081016040528093929190818152602001838380828437600081840152601f19601f8201169050808301925050505050505091929192908035906020019064010000000081111561109a57600080fd5b8201836020820111156110ac57600080fd5b803590602001918460018302840111640100000000831117156110ce57600080fd5b91908080601f016020809104026020016040519081016040528093929190818152602001838380828437600081840152601f19601f82011690508083019250505050505050919291929080359060200190929190505050613272565b6040518082815260200191505060405180910390f35b34801561114c57600080fd5b5061159d600480360361010081101561116457600080fd5b810190808035906020019064010000000081111561118157600080fd5b82018360208201111561119357600080fd5b803590602001918460018302840111640100000000831117156111b557600080fd5b91908080601f016020809104026020016040519081016040528093929190818152602001838380828437600081840152601f19601f8201169050808301925050505050505091929192908035906020019064010000000081111561121857600080fd5b82018360208201111561122a57600080fd5b8035906020019184600183028401116401000000008311171561124c57600080fd5b91908080601f016020809104026020016040519081016040528093929190818152602001838380828437600081840152601f19601f820116905080830192505050505050509192919290803590602001906401000000008111156112af57600080fd5b8201836020820111156112c157600080fd5b803590602001918460018302840111640100000000831117156112e357600080fd5b91908080601f016020809104026020016040519081016040528093929190818152602001838380828437600081840152601f19601f8201169050808301925050505050505091929192908035906020019064010000000081111561134657600080fd5b82018360208201111561135857600080fd5b8035906020019184600183028401116401000000008311171561137a57600080fd5b91908080601f016020809104026020016040519081016040528093929190818152602001838380828437600081840152601f19601f820116905080830192505050505050509192919290803590602001906401000000008111156113dd57600080fd5b8201836020820111156113ef57600080fd5b8035906020019184600183028401116401000000008311171561141157600080fd5b91908080601f016020809104026020016040519081016040528093929190818152602001838380828437600081840152601f19601f8201169050808301925050505050505091929192908035906020019064010000000081111561147457600080fd5b82018360208201111561148657600080fd5b803590602001918460018302840111640100000000831117156114a857600080fd5b91908080601f016020809104026020016040519081016040528093929190818152602001838380828437600081840152601f19601f8201169050808301925050505050505091929192908035906020019064010000000081111561150b57600080fd5b82018360208201111561151d57600080fd5b8035906020019184600183028401116401000000008311171561153f57600080fd5b91908080601f016020809104026020016040519081016040528093929190818152602001838380828437600081840152601f19601f820116905080830192505050505050509192919290803515159060200190929190505050613458565b005b3480156115ab57600080fd5b506115d8600480360360208110156115c257600080fd5b8101908080359060200190929190505050613585565b60405180806020018060200180602001848103845287818151815260200191508051906020019080838360005b83811015611620578082015181840152602081019050611605565b50505050905090810190601f16801561164d5780820380516001836020036101000a031916815260200191505b50848103835286818151815260200191508051906020019080838360005b8381101561168657808201518184015260208101905061166b565b50505050905090810190601f1680156116b35780820380516001836020036101000a031916815260200191505b50848103825285818151815260200191508051906020019080838360005b838110156116ec5780820151818401526020810190506116d1565b50505050905090810190601f1680156117195780820380516001836020036101000a031916815260200191505b50965050505050505060405180910390f35b34801561173757600080fd5b506119c2600480360360a081101561174e57600080fd5b810190808035906020019064010000000081111561176b57600080fd5b82018360208201111561177d57600080fd5b8035906020019184600183028401116401000000008311171561179f57600080fd5b91908080601f016020809104026020016040519081016040528093929190818152602001838380828437600081840152601f19601f8201169050808301925050505050505091929192908035151590602001909291908035906020019064010000000081111561180e57600080fd5b82018360208201111561182057600080fd5b8035906020019184600183028401116401000000008311171561184257600080fd5b91908080601f016020809104026020016040519081016040528093929190818152602001838380828437600081840152601f19601f820116905080830192505050505050509192919290803590602001906401000000008111156118a557600080fd5b8201836020820111156118b757600080fd5b803590602001918460018302840111640100000000831117156118d957600080fd5b91908080601f016020809104026020016040519081016040528093929190818152602001838380828437600081840152601f19601f8201169050808301925050505050505091929192908035906020019064010000000081111561193c57600080fd5b82018360208201111561194e57600080fd5b8035906020019184600183028401116401000000008311171561197057600080fd5b91908080601f016020809104026020016040519081016040528093929190818152602001838380828437600081840152601f19601f8201169050808301925050505050505091929192905050506137a7565b604051808215151515815260200191505060405180910390f35b3480156119e857600080fd5b50611c71600480360360a08110156119ff57600080fd5b8101908080359060200190640100000000811115611a1c57600080fd5b820183602082011115611a2e57600080fd5b80359060200191846001830284011164010000000083111715611a5057600080fd5b91908080601f016020809104026020016040519081016040528093929190818152602001838380828437600081840152601f19601f82011690508083019250505050505050919291929080359060200190640100000000811115611ab357600080fd5b820183602082011115611ac557600080fd5b80359060200191846001830284011164010000000083111715611ae757600080fd5b91908080601f016020809104026020016040519081016040528093929190818152602001838380828437600081840152601f19601f8201169050808301925050505050505091929192908035906020019092919080359060200190640100000000811115611b5457600080fd5b820183602082011115611b6657600080fd5b80359060200191846001830284011164010000000083111715611b8857600080fd5b91908080601f016020809104026020016040519081016040528093929190818152602001838380828437600081840152601f19601f82011690508083019250505050505050919291929080359060200190640100000000811115611beb57600080fd5b820183602082011115611bfd57600080fd5b80359060200191846001830284011164010000000083111715611c1f57600080fd5b91908080601f016020809104026020016040519081016040528093929190818152602001838380828437600081840152601f19601f8201169050808301925050505050505091929192905050506139bc565b604051808215151515815260200191505060405180910390f35b611c93613bca565b6040518082815260200191505060405180910390f35b348015611cb557600080fd5b50611cbe613c71565b6040518082815260200191505060405180910390f35b611ebb60048036036060811015611cea57600080fd5b8101908080359060200190640100000000811115611d0757600080fd5b820183602082011115611d1957600080fd5b80359060200191846001830284011164010000000083111715611d3b57600080fd5b91908080601f016020809104026020016040519081016040528093929190818152602001838380828437600081840152601f19601f82011690508083019250505050505050919291929080359060200190640100000000811115611d9e57600080fd5b820183602082011115611db057600080fd5b80359060200191846001830284011164010000000083111715611dd257600080fd5b91908080601f016020809104026020016040519081016040528093929190818152602001838380828437600081840152601f19601f82011690508083019250505050505050919291929080359060200190640100000000811115611e3557600080fd5b820183602082011115611e4757600080fd5b80359060200191846001830284011164010000000083111715611e6957600080fd5b91908080601f016020809104026020016040519081016040528093929190818152602001838380828437600081840152601f19601f820116905080830192505050505050509192919290505050613c78565b604051808215151515815260200191505060405180910390f35b6101925481565b6060806060806060806060600061019660003373ffffffffffffffffffffffffffffffffffffffff1673ffffffffffffffffffffffffffffffffffffffff168152602001908152602001600020905080600001816001018260040183600501846006018560070186600801868054600181600116156101000203166002900480601f016020809104026020016040519081016040528092919081815260200182805460018160011615610100020316600290048015611fdc5780601f10611fb157610100808354040283529160200191611fdc565b820191906000526020600020905b815481529060010190602001808311611fbf57829003601f168201915b50505050509650858054600181600116156101000203166002900480601f0160208091040260200160405190810160405280929190818152602001828054600181600116156101000203166002900480156120785780601f1061204d57610100808354040283529160200191612078565b820191906000526020600020905b81548152906001019060200180831161205b57829003601f168201915b50505050509550848054600181600116156101000203166002900480601f0160208091040260200160405190810160405280929190818152602001828054600181600116156101000203166002900480156121145780601f106120e957610100808354040283529160200191612114565b820191906000526020600020905b8154815290600101906020018083116120f757829003601f168201915b50505050509450838054600181600116156101000203166002900480601f0160208091040260200160405190810160405280929190818152602001828054600181600116156101000203166002900480156121b05780601f10612185576101008083540402835291602001916121b0565b820191906000526020600020905b81548152906001019060200180831161219357829003601f168201915b50505050509350828054600181600116156101000203166002900480601f01602080910402602001604051908101604052809291908181526020018280546001816001161561010002031660029004801561224c5780601f106122215761010080835404028352916020019161224c565b820191906000526020600020905b81548152906001019060200180831161222f57829003601f168201915b50505050509250818054600181600116156101000203166002900480601f0160208091040260200160405190810160405280929190818152602001828054600181600116156101000203166002900480156122e85780601f106122bd576101008083540402835291602001916122e8565b820191906000526020600020905b8154815290600101906020018083116122cb57829003601f168201915b50505050509150808054600181600116156101000203166002900480601f0160208091040260200160405190810160405280929190818152602001828054600181600116156101000203166002900480156123845780601f1061235957610100808354040283529160200191612384565b820191906000526020600020905b81548152906001019060200180831161236757829003601f168201915b5050505050905097509750975097509750975097505090919293949596565b600080600190505b60008001548111612432573373ffffffffffffffffffffffffffffffffffffffff166000600101600083815260200190815260200160002060009054906101000a900473ffffffffffffffffffffffffffffffffffffffff1673ffffffffffffffffffffffffffffffffffffffff16141561242557612432565b80806001019150506123ab565b600080015481111561244357600080fd5b6000806000015490505b60008111156124d7578373ffffffffffffffffffffffffffffffffffffffff166000600101600083815260200190815260200160002060009054906101000a900473ffffffffffffffffffffffffffffffffffffffff1673ffffffffffffffffffffffffffffffffffffffff1614156124c957809250506124e0565b80806001900391505061244d565b633b9ac9f99250505b50919050565b600061019660003373ffffffffffffffffffffffffffffffffffffffff1673ffffffffffffffffffffffffffffffffffffffff16815260200190815260200160002060030154905090565b6002816064811061253e57fe5b60040201600091509050806000018054600181600116156101000203166002900480601f0160208091040260200160405190810160405280929190818152602001828054600181600116156101000203166002900480156125e05780601f106125b5576101008083540402835291602001916125e0565b820191906000526020600020905b8154815290600101906020018083116125c357829003601f168201915b505050505090806001015490806002018054600181600116156101000203166002900480601f0160208091040260200160405190810160405280929190818152602001828054600181600116156101000203166002900480156126845780601f1061265957610100808354040283529160200191612684565b820191906000526020600020905b81548152906001019060200180831161266757829003601f168201915b505050505090806003018054600181600116156101000203166002900480601f0160208091040260200160405190810160405280929190818152602001828054600181600116156101000203166002900480156127225780601f106126f757610100808354040283529160200191612722565b820191906000526020600020905b81548152906001019060200180831161270557829003601f168201915b5050505050905084565b600080600190505b600080015481116127bb573373ffffffffffffffffffffffffffffffffffffffff166000600101600083815260200190815260200160002060009054906101000a900473ffffffffffffffffffffffffffffffffffffffff1673ffffffffffffffffffffffffffffffffffffffff1614156127ae576127bb565b8080600101915050612734565b60008001548111156127cc57600080fd5b600080016000815480929190600101919050555082600060010160008060000154815260200190815260200160002060006101000a81548173ffffffffffffffffffffffffffffffffffffffff021916908373ffffffffffffffffffffffffffffffffffffffff1602179055506000800154915050919050565b6060600060608060608060606000806101958a6040518082805190602001908083835b6020831061288c5780518252602082019150602081019050602083039250612869565b6001836020036101000a0380198251168184511680821785525050505050509050019150509081526020016040518091039020905080600001816001015482600201836003018460040185600501866006018760070160009054906101000a900460ff16878054600181600116156101000203166002900480601f0160208091040260200160405190810160405280929190818152602001828054600181600116156101000203166002900480156129855780601f1061295a57610100808354040283529160200191612985565b820191906000526020600020905b81548152906001019060200180831161296857829003601f168201915b50505050509750858054600181600116156101000203166002900480601f016020809104026020016040519081016040528092919081815260200182805460018160011615610100020316600290048015612a215780601f106129f657610100808354040283529160200191612a21565b820191906000526020600020905b815481529060010190602001808311612a0457829003601f168201915b50505050509550848054600181600116156101000203166002900480601f016020809104026020016040519081016040528092919081815260200182805460018160011615610100020316600290048015612abd5780601f10612a9257610100808354040283529160200191612abd565b820191906000526020600020905b815481529060010190602001808311612aa057829003601f168201915b50505050509450838054600181600116156101000203166002900480601f016020809104026020016040519081016040528092919081815260200182805460018160011615610100020316600290048015612b595780601f10612b2e57610100808354040283529160200191612b59565b820191906000526020600020905b815481529060010190602001808311612b3c57829003601f168201915b50505050509350828054600181600116156101000203166002900480601f016020809104026020016040519081016040528092919081815260200182805460018160011615610100020316600290048015612bf55780601f10612bca57610100808354040283529160200191612bf5565b820191906000526020600020905b815481529060010190602001808311612bd857829003601f168201915b50505050509250818054600181600116156101000203166002900480601f016020809104026020016040519081016040528092919081815260200182805460018160011615610100020316600290048015612c915780601f10612c6657610100808354040283529160200191612c91565b820191906000526020600020905b815481529060010190602001808311612c7457829003601f168201915b505050505091509850985098509850985098509850985050919395975091939597565b600080600190505b60008001548111612d43573373ffffffffffffffffffffffffffffffffffffffff166000600101600083815260200190815260200160002060009054906101000a900473ffffffffffffffffffffffffffffffffffffffff1673ffffffffffffffffffffffffffffffffffffffff161415612d3657612d43565b8080600101915050612cbc565b6000800154811115612d5457600080fd5b600080600001548411158015612d6b575060018410155b15612e1f578390505b6000800154811015612e00576000600101600060018301815260200190815260200160002060009054906101000a900473ffffffffffffffffffffffffffffffffffffffff1673ffffffffffffffffffffffffffffffffffffffff166000600101600083815260200190815260200160002060009054906101000a905050508080600101915050612d74565b6000800160008154809291906001900391905055506001925050612e25565b60009250505b50919050565b60608060608060608060008061019660003373ffffffffffffffffffffffffffffffffffffffff1673ffffffffffffffffffffffffffffffffffffffff168152602001908152602001600020905060008160020160008b815260200190815260200160002090508060000181600101826002018360030184600401856005018660060154868054600181600116156101000203166002900480601f016020809104026020016040519081016040528092919081815260200182805460018160011615610100020316600290048015612f445780601f10612f1957610100808354040283529160200191612f44565b820191906000526020600020905b815481529060010190602001808311612f2757829003601f168201915b50505050509650858054600181600116156101000203166002900480601f016020809104026020016040519081016040528092919081815260200182805460018160011615610100020316600290048015612fe05780601f10612fb557610100808354040283529160200191612fe0565b820191906000526020600020905b815481529060010190602001808311612fc357829003601f168201915b50505050509550848054600181600116156101000203166002900480601f01602080910402602001604051908101604052809291908181526020018280546001816001161561010002031660029004801561307c5780601f106130515761010080835404028352916020019161307c565b820191906000526020600020905b81548152906001019060200180831161305f57829003601f168201915b50505050509450838054600181600116156101000203166002900480601f0160208091040260200160405190810160405280929190818152602001828054600181600116156101000203166002900480156131185780601f106130ed57610100808354040283529160200191613118565b820191906000526020600020905b8154815290600101906020018083116130fb57829003601f168201915b50505050509350828054600181600116156101000203166002900480601f0160208091040260200160405190810160405280929190818152602001828054600181600116156101000203166002900480156131b45780601f10613189576101008083540402835291602001916131b4565b820191906000526020600020905b81548152906001019060200180831161319757829003601f168201915b50505050509250818054600181600116156101000203166002900480601f0160208091040260200160405190810160405280929190818152602001828054600181600116156101000203166002900480156132505780601f1061322557610100808354040283529160200191613250565b820191906000526020600020905b81548152906001019060200180831161323357829003601f168201915b5050505050915098509850985098509850985098505050919395979092949650565b60008061019660003373ffffffffffffffffffffffffffffffffffffffff1673ffffffffffffffffffffffffffffffffffffffff1681526020019081526020016000206003016000815480929190600101919050555061019660003373ffffffffffffffffffffffffffffffffffffffff1673ffffffffffffffffffffffffffffffffffffffff168152602001908152602001600020600301549050600061019660003373ffffffffffffffffffffffffffffffffffffffff1673ffffffffffffffffffffffffffffffffffffffff168152602001908152602001600020600201600083815260200190815260200160002090508981600001908051906020019061337e929190613d7c565b5088816001019080519060200190613397929190613d7c565b50878160020190805190602001906133b0929190613d7c565b50868160030190805190602001906133c9929190613d7c565b50858160040190805190602001906133e2929190613d7c565b50848160050190805190602001906133fb929190613d7c565b5083816006018190555061019660003373ffffffffffffffffffffffffffffffffffffffff1673ffffffffffffffffffffffffffffffffffffffff1681526020019081526020016000206003015492505050979650505050505050565b600061019660003373ffffffffffffffffffffffffffffffffffffffff1673ffffffffffffffffffffffffffffffffffffffff1681526020019081526020016000209050888160000190805190602001906134b4929190613d7c565b50878160010190805190602001906134cd929190613d7c565b50868160040190805190602001906134e6929190613d7c565b50858160050190805190602001906134ff929190613d7c565b5084816006019080519060200190613518929190613d7c565b5083816007019080519060200190613531929190613d7c565b508281600801908051906020019061354a929190613d7c565b50818160090160006101000a81548160ff02191690831515021790555061019460008154809291906001019190505550505050505050505050565b60608060606002846064811061359757fe5b60040201600001600285606481106135ab57fe5b60040201600201600286606481106135bf57fe5b60040201600301828054600181600116156101000203166002900480601f01602080910402602001604051908101604052809291908181526020018280546001816001161561010002031660029004801561365b5780601f106136305761010080835404028352916020019161365b565b820191906000526020600020905b81548152906001019060200180831161363e57829003601f168201915b50505050509250818054600181600116156101000203166002900480601f0160208091040260200160405190810160405280929190818152602001828054600181600116156101000203166002900480156136f75780601f106136cc576101008083540402835291602001916136f7565b820191906000526020600020905b8154815290600101906020018083116136da57829003601f168201915b50505050509150808054600181600116156101000203166002900480601f0160208091040260200160405190810160405280929190818152602001828054600181600116156101000203166002900480156137935780601f1061376857610100808354040283529160200191613793565b820191906000526020600020905b81548152906001019060200180831161377657829003601f168201915b505050505090509250925092509193909250565b600080600190505b60008001548111613836573373ffffffffffffffffffffffffffffffffffffffff166000600101600083815260200190815260200160002060009054906101000a900473ffffffffffffffffffffffffffffffffffffffff1673ffffffffffffffffffffffffffffffffffffffff16141561382957613836565b80806001019150506137af565b600080015481111561384757600080fd5b60001515610195886040518082805190602001908083835b60208310613882578051825260208201915060208101905060208303925061385f565b6001836020036101000a038019825116818451168082178552505050505050905001915050908152602001604051809103902060070160009054906101000a900460ff16151514156139ad576000610195886040518082805190602001908083835b6020831061390757805182526020820191506020810190506020830392506138e4565b6001836020036101000a0380198251168184511680821785525050505050509050019150509081526020016040518091039020905084816003019080519060200190613954929190613d7c565b508581600601908051906020019061396d929190613d7c565b5083816005019080519060200190613986929190613d7c565b50868160070160006101000a81548160ff02191690831515021790555060019250506139b2565b600091505b5095945050505050565b600080600190505b60008001548111613a4b573373ffffffffffffffffffffffffffffffffffffffff166000600101600083815260200190815260200160002060009054906101000a900473ffffffffffffffffffffffffffffffffffffffff1673ffffffffffffffffffffffffffffffffffffffff161415613a3e57613a4b565b80806001019150506139c4565b6000800154811115613a5c57600080fd5b610195876040518082805190602001908083835b60208310613a935780518252602082019150602081019050602083039250613a70565b6001836020036101000a038019825116818451168082178552505050505050905001915050908152602001604051809103902060070160009054906101000a900460ff1615613bbb576000610195886040518082805190602001908083835b60208310613b155780518252602082019150602081019050602083039250613af2565b6001836020036101000a0380198251168184511680821785525050505050509050019150509081526020016040518091039020905086816000019080519060200190613b62929190613d7c565b5085816001018190555084816002019080519060200190613b84929190613d7c565b5083816004019080519060200190613b9d929190613d7c565b50610193600081548092919060010191905055506001925050613bc0565b600091505b5095945050505050565b600080600190505b60008001548111613c59573373ffffffffffffffffffffffffffffffffffffffff166000600101600083815260200190815260200160002060009054906101000a900473ffffffffffffffffffffffffffffffffffffffff1673ffffffffffffffffffffffffffffffffffffffff161415613c4c57613c59565b8080600101915050613bd2565b6000800154811115613c6a57600080fd5b4791505090565b6101935481565b60006101926000815480929190600101919050555060405180608001604052808581526020016101925481526020018481526020018381525060026101925460648110613cc157fe5b600402016000820151816000019080519060200190613ce1929190613dfc565b50602082015181600101556040820151816002019080519060200190613d08929190613dfc565b506060820151816003019080519060200190613d25929190613dfc565b509050503373ffffffffffffffffffffffffffffffffffffffff166108fc60649081150290604051600060405180830381858888f19350505050158015613d70573d6000803e3d6000fd5b50600190509392505050565b828054600181600116156101000203166002900490600052602060002090601f016020900481019282601f10613dbd57805160ff1916838001178555613deb565b82800160010185558215613deb579182015b82811115613dea578251825591602001919060010190613dcf565b5b509050613df89190613e7c565b5090565b828054600181600116156101000203166002900490600052602060002090601f016020900481019282601f10613e3d57805160ff1916838001178555613e6b565b82800160010185558215613e6b579182015b82811115613e6a578251825591602001919060010190613e4f565b5b509050613e789190613e7c565b5090565b613e9e91905b80821115613e9a576000816000905550600101613e82565b5090565b9056fea265627a7a723158203a8420fa5afc18c9f536d04b0cd8c4091c3381057fa236cbda93e7bf3e0ab13964736f6c63430005100032",
  "source": "pragma solidity ^0.5.0;\r\n\r\ncontract CM{\r\n    \r\n    struct Medicinal_Materials// \r\n    {\r\n        string name;// \r\n        uint num;// \r\n        string Place_of_Origin;// \r\n        string Picking_Date;//  \r\n        string Processing_Date;// \r\n        string Effective_Date;// \r\n        string quality;//  \r\n        bool inspect;// \r\n    }\r\n    \r\n    struct Medical_order//  \r\n    {\r\n        string doctor_Name;//\r\n        string patient_Name;//\r\n        string Symptom;// \r\n        string Date_of_consultation;//\r\n        string Describe;// \r\n        string Prescription;// \r\n        //string Disease_grade;//\r\n        //string Duration;//\r\n        //string Improvement;//\r\n        //string Side_effects;//\r\n        //string Deterioration;//\r\n        //string patient_ID;//ID\r\n        //string doctor_ID;//ID\r\n        //uint Appointment_visit_amount;//\r\n        //uint Prescription_amount;//\r\n        uint Total_sum;//\r\n    }\r\n    \r\n    struct User // \r\n    {\r\n        string ID_of_User;// ID\r\n        string Name_of_User;// \r\n        mapping (uint => Medical_order) record;//  \r\n        uint order_number;// \r\n        string Phone_number;// \r\n        string Email;//\r\n        string Gender;// \r\n        string Registration_time;// \r\n        string Occupation;// \r\n        bool Isdoctor;// \r\n    }\r\n    \r\n    struct prescription // \r\n    {\r\n        string medicinal_materials;\r\n        uint ID;\r\n        string Effect;\r\n        string prescription_type;\r\n    }\r\n    \r\n    struct Controller{\r\n        uint ControllerNumber;//\r\n        mapping (uint => address) controller;\r\n    }\r\n    \r\n    \r\n    Controller Member_Table;// \r\n    \r\n    prescription [100] public prescription_book;// \r\n    \r\n    uint public Pres_counter;// \r\n    \r\n    uint public Medicinal_counter;//\r\n    \r\n    uint User_counter;//  \r\n    \r\n    mapping (string => Medicinal_Materials) Medicinal_Information; //\r\n    \r\n    mapping (address => User) User_block;// \r\n    \r\n    \r\n    \r\n    constructor () payable public{// \r\n        require(address(this).balance >= 0);// \r\n        Member_Table.ControllerNumber = 1;\r\n        Member_Table.controller[Member_Table.ControllerNumber] = msg.sender;//\r\n    }\r\n    \r\n    modifier onlyController(){//\r\n        uint i;\r\n        for(i = 1; i <= Member_Table.ControllerNumber; i++){\r\n            if(Member_Table.controller[i] == msg.sender){\r\n                break;\r\n            }\r\n        }\r\n        require(i <= Member_Table.ControllerNumber);\r\n        _;\r\n    }\r\n    \r\n    function reduceOwnership(uint num) public onlyController returns (bool){// ( )\r\n        uint i;\r\n        if(num <= Member_Table.ControllerNumber && num >= 1){\r\n            for(i = num; i < Member_Table.ControllerNumber; i++){// \r\n               Member_Table.controller[i] == Member_Table.controller[i+1];\r\n            }\r\n            Member_Table.ControllerNumber --;\r\n            return true;\r\n        }\r\n        else{\r\n            return false;\r\n        }\r\n    }\r\n    \r\n    function increaseOwnership(address newcontroller) public onlyController returns (uint){// ( )\r\n        Member_Table.ControllerNumber ++;\r\n        Member_Table.controller[Member_Table.ControllerNumber] = newcontroller;\r\n        return Member_Table.ControllerNumber;\r\n    }\r\n    \r\n    function checkID(address newcontroller) public view onlyController returns (uint){\r\n        uint i;\r\n        for (i=Member_Table.ControllerNumber;i>0;i--)\r\n        {\r\n            if (Member_Table.controller[i] == newcontroller)\r\n                return i;\r\n        }\r\n        return 1e9-7;\r\n    }\r\n    function Registration ( \r\n        string memory User_ID,\r\n        string memory User_name,\r\n        string memory phonenumber,\r\n        string memory _email,\r\n        string memory _gender,\r\n        string memory _time,\r\n        string memory _occupation,\r\n        bool _Isdoctor\r\n    ) \r\n    public{// \r\n        User storage U = User_block[msg.sender];\r\n        U.ID_of_User = User_ID;\r\n        U.Name_of_User = User_name;\r\n        U.Phone_number = phonenumber;\r\n        U.Email = _email;\r\n        U.Gender = _gender;\r\n        U.Registration_time = _time;\r\n        U.Occupation = _occupation;\r\n        U.Isdoctor = _Isdoctor;\r\n        User_counter ++;\r\n    }\r\n    \r\n    //function Change_information()\r\n    \r\n    function Record_medical_records(\r\n        string memory doctorName,\r\n        string memory patientName,\r\n        string memory _Symptom,\r\n        string memory _Date_of_consultation,\r\n        string memory _Describe,\r\n        string memory _Prescription,\r\n        uint _Total_sum\r\n        )\r\n        public\r\n        returns(uint){// \r\n            uint i1;// \r\n            User_block[msg.sender].order_number ++;\r\n            i1 = User_block[msg.sender].order_number ;\r\n            Medical_order storage m = User_block[msg.sender].record[i1];\r\n            m.doctor_Name = doctorName;\r\n            m.patient_Name = patientName;\r\n            m.Symptom = _Symptom;\r\n            m.Date_of_consultation = _Date_of_consultation;\r\n            m.Describe = _Describe;\r\n            m.Prescription = _Prescription;\r\n            //m.Disease_grade = _Disease_grade;\r\n            //m.Duration = _Duration;\r\n            //m.Improvement = _Improvement;\r\n            //m.Side_effects = _Side_effects;\r\n            //m.Deterioration = _Deterioration;\r\n            //m.patient_ID = _patient_ID;\r\n            //m.doctor_ID = _doctor_ID;\r\n            //m.Appointment_visit_amount = _Appointment_visit_amount;\r\n            //m.Prescription_amount = _Prescription_amount;\r\n            m.Total_sum = _Total_sum;\r\n            return(User_block[msg.sender].order_number);\r\n        }\r\n        \r\n    \r\n    function Purchase (string memory identifier,string memory _name,uint _num,string memory place,string memory date) public onlyController returns(bool){// ( )\r\n     if( Medicinal_Information[identifier].inspect)\r\n     {\r\n        Medicinal_Materials storage Materials = Medicinal_Information[identifier];\r\n        Materials.name = _name;\r\n        Materials.num = _num;\r\n        Materials.Place_of_Origin = place;\r\n        Materials.Processing_Date = date;\r\n        Medicinal_counter++;\r\n        //identifier: \r\n        return(true);\r\n     }\r\n     else\r\n     {\r\n         return(false);\r\n     }\r\n    }\r\n    \r\n    function Produce (string memory identifier,bool _inspect,string memory _quality,string memory _ProcessingDate,string memory  _EffectDate) public onlyController returns(bool){//  \r\n         if(Medicinal_Information[identifier].inspect == false)\r\n         {\r\n          Medicinal_Materials storage Materials = Medicinal_Information[identifier];\r\n          Materials.Picking_Date = _ProcessingDate;\r\n          Materials.quality = _quality;\r\n          Materials.Effective_Date = _EffectDate;\r\n          Materials.inspect = _inspect;\r\n          return(true);\r\n         }\r\n         else\r\n         {\r\n            return(false);\r\n         }\r\n        //identifier: \r\n    }\r\n    \r\n    function checkMedicine (string memory identifier) view public returns(string memory ,uint,string memory ,string memory ,string memory ,string memory ,string memory,bool){// \r\n        Medicinal_Materials storage c =  Medicinal_Information[identifier];\r\n        return(c.name,c.num,c.Place_of_Origin,c.Picking_Date,c.Processing_Date,c.Effective_Date,c.quality,c.inspect);\r\n    }\r\n    \r\n    function checkMedicalOrder (uint page) view public returns(string memory ,string memory ,string memory ,string memory ,string memory ,string memory ,uint){// ,page\r\n        User storage U = User_block[msg.sender];\r\n        Medical_order storage m = U.record[page];\r\n        return(m.doctor_Name,m.patient_Name,m.Symptom,m.Date_of_consultation,m.Describe,m.Prescription,m.Total_sum);\r\n    }\r\n    \r\n    function Submit_prescription(\r\n        string memory _medicinal_materials,\r\n        string memory _Effect,\r\n        string memory _prescription_type\r\n        )\r\n        payable public returns(bool){// \r\n            //require(User_block[msg.sender].Isdoctor == true);//\r\n            Pres_counter ++;\r\n            prescription_book[Pres_counter] = prescription(_medicinal_materials,Pres_counter,_Effect,_prescription_type);\r\n            msg.sender.transfer(100);// \r\n            return true;\r\n        }\r\n    \r\n    function checkpage() view public returns(uint){//\r\n        return(User_block[msg.sender].order_number);\r\n    }\r\n  \r\n    function Deposit() public payable onlyController returns(uint){// \r\n        return(address(this).balance);\r\n    }\r\n    \r\n    function checkPrescription(uint _ID) view public returns(string memory,string memory,string memory){// \r\n        return(prescription_book[_ID].medicinal_materials,prescription_book[_ID].Effect,prescription_book[_ID].prescription_type);\r\n    }\r\n    \r\n    function checkUserdate() view public returns (string memory,string memory,string memory,string memory,string memory,string memory,string memory){// \r\n        User storage U = User_block[msg.sender];\r\n        return(U.ID_of_User,U.Name_of_User,U.Phone_number,U.Email,U.Gender,U.Registration_time,U.Occupation);\r\n    }\r\n}",
  "sourcePath": "E:\\learning\\program\\github\\newWEB\\contracts\\Chinese Medicine.sol",
  "compiler": {
    "name": "solc",
    "version": "0.5.16+commit.9c3226ce.Emscripten.clang"
  },
  "schemaVersion": "3.0.23",
  "updatedAt": "2020-03-21T03:01:34.277Z",
  "networkType": "ethereum",
  "devdoc": {
    "methods": {}
  },
  "userdoc": {
    "methods": {}
  }
}